{
  "contractName": "Donation",
  "abi": [
    {
      "inputs": [
        {
          "internalType": "address",
          "name": "_priceFeedAddress",
          "type": "address"
        }
      ],
      "stateMutability": "nonpayable",
      "type": "constructor"
    },
    {
      "anonymous": false,
      "inputs": [
        {
          "indexed": true,
          "internalType": "address",
          "name": "donor",
          "type": "address"
        },
        {
          "indexed": false,
          "internalType": "uint256",
          "name": "amount",
          "type": "uint256"
        }
      ],
      "name": "DonationReceived",
      "type": "event"
    },
    {
      "inputs": [],
      "name": "donate",
      "outputs": [],
      "stateMutability": "payable",
      "type": "function"
    },
    {
      "inputs": [],
      "name": "getContractBalance",
      "outputs": [
        {
          "internalType": "uint256",
          "name": "",
          "type": "uint256"
        }
      ],
      "stateMutability": "view",
      "type": "function"
    },
    {
      "inputs": [],
      "name": "getContractBalanceInUSD",
      "outputs": [
        {
          "internalType": "uint256",
          "name": "",
          "type": "uint256"
        }
      ],
      "stateMutability": "view",
      "type": "function"
    }
  ],
  "bytecode": "0x608060405234801561001057600080fd5b506040516107d03803806107d08339818101604052810190610032919061008d565b806000806101000a81548173ffffffffffffffffffffffffffffffffffffffff021916908373ffffffffffffffffffffffffffffffffffffffff160217905550506100ff565b600081519050610087816100e8565b92915050565b60006020828403121561009f57600080fd5b60006100ad84828501610078565b91505092915050565b60006100c1826100c8565b9050919050565b600073ffffffffffffffffffffffffffffffffffffffff82169050919050565b6100f1816100b6565b81146100fc57600080fd5b50565b6106c28061010e6000396000f3fe6080604052600436106100345760003560e01c80636f9fb98a146100395780639897883e14610064578063ed88c68e1461008f575b600080fd5b34801561004557600080fd5b5061004e610099565b60405161005b9190610377565b60405180910390f35b34801561007057600080fd5b506100796100a1565b6040516100869190610377565b60405180910390f35b610097610224565b005b600047905090565b60008060008054906101000a900473ffffffffffffffffffffffffffffffffffffffff1673ffffffffffffffffffffffffffffffffffffffff1663feaf968c6040518163ffffffff1660e01b815260040160a06040518083038186803b15801561010a57600080fd5b505afa15801561011e573d6000803e3d6000fd5b505050506040513d601f19601f8201168201806040525081019061014291906102c8565b505050915050600047905060008060009054906101000a900473ffffffffffffffffffffffffffffffffffffffff1673ffffffffffffffffffffffffffffffffffffffff1663313ce5676040518163ffffffff1660e01b815260040160206040518083038186803b1580156101b657600080fd5b505afa1580156101ca573d6000803e3d6000fd5b505050506040513d601f19601f820116820180604052508101906101ee919061033f565b60ff169050600081600a6102029190610416565b848461020e9190610534565b6102189190610392565b90508094505050505090565b3373ffffffffffffffffffffffffffffffffffffffff167f264f630d9efa0d07053a31163641d9fcc0adafc9d9e76f1c37c2ce3a558d2c523460405161026a9190610377565b60405180910390a2565b60008151905061028381610630565b92915050565b60008151905061029881610647565b92915050565b6000815190506102ad81610675565b92915050565b6000815190506102c28161065e565b92915050565b600080600080600060a086880312156102e057600080fd5b60006102ee8882890161029e565b95505060206102ff88828901610274565b945050604061031088828901610289565b935050606061032188828901610289565b92505060806103328882890161029e565b9150509295509295909350565b60006020828403121561035157600080fd5b600061035f848285016102b3565b91505092915050565b61037181610598565b82525050565b600060208201905061038c6000830184610368565b92915050565b600061039d82610598565b91506103a883610598565b9250826103b8576103b76105f4565b5b828204905092915050565b6000808291508390505b600185111561040d578086048111156103e9576103e86105c5565b5b60018516156103f85780820291505b808102905061040685610623565b94506103cd565b94509492505050565b600061042182610598565b915061042c83610598565b92506104597fffffffffffffffffffffffffffffffffffffffffffffffffffffffffffffffff8484610461565b905092915050565b600082610471576001905061052d565b8161047f576000905061052d565b8160018114610495576002811461049f576104ce565b600191505061052d565b60ff8411156104b1576104b06105c5565b5b8360020a9150848211156104c8576104c76105c5565b5b5061052d565b5060208310610133831016604e8410600b84101617156105035782820a9050838111156104fe576104fd6105c5565b5b61052d565b61051084848460016103c3565b92509050818404811115610527576105266105c5565b5b81810290505b9392505050565b600061053f82610598565b915061054a83610598565b9250817fffffffffffffffffffffffffffffffffffffffffffffffffffffffffffffffff0483118215151615610583576105826105c5565b5b828202905092915050565b6000819050919050565b6000819050919050565b600060ff82169050919050565b600069ffffffffffffffffffff82169050919050565b7f4e487b7100000000000000000000000000000000000000000000000000000000600052601160045260246000fd5b7f4e487b7100000000000000000000000000000000000000000000000000000000600052601260045260246000fd5b60008160011c9050919050565b6106398161058e565b811461064457600080fd5b50565b61065081610598565b811461065b57600080fd5b50565b610667816105a2565b811461067257600080fd5b50565b61067e816105af565b811461068957600080fd5b5056fea26469706673582212203acb1828b4c8f63faef076bbe1ae568e7f88a6892de0ce383754d2e933f5064a64736f6c63430008000033",
  "immutableReferences": {},
  "source": "// SPDX-License-Identifier: MIT\r\npragma solidity ^0.8.0;\r\n\r\nimport \"./AggregatorV3Interface.sol\";\r\n\r\ncontract Donation {\r\n    event DonationReceived(address indexed donor, uint256 amount);\r\n\r\n    AggregatorV3Interface internal priceFeed;\r\n\r\n    constructor(address _priceFeedAddress) {\r\n        priceFeed = AggregatorV3Interface(_priceFeedAddress);\r\n    }\r\n\r\n    function donate() external payable {\r\n        emit DonationReceived(msg.sender, msg.value);\r\n    }\r\n\r\n    function getContractBalance() external view returns (uint256) {\r\n        return address(this).balance;\r\n    }\r\n\r\n    function getContractBalanceInUSD() external view returns (uint256) {\r\n        (, int256 price, , , ) = priceFeed.latestRoundData();\r\n        uint256 contractBalance = address(this).balance;\r\n        uint256 decimals = uint256(priceFeed.decimals());\r\n        uint256 contractBalanceInUSD = (contractBalance * uint256(price)) / (10**decimals);\r\n        return contractBalanceInUSD;\r\n    }\r\n}\r\n",
  "sourcePath": "C:\\Users\\5u\\Desktop\\donation-dapp\\contracts\\Donation.sol",
  "compiler": {
    "name": "solc",
    "version": "0.8.0+commit.c7dfd78e.Emscripten.clang"
  },
  "schemaVersion": "3.4.14",
  "updatedAt": "2023-06-08T21:02:30.158Z",
  "devdoc": {
    "kind": "dev",
    "methods": {},
    "version": 1
  },
  "userdoc": {
    "kind": "user",
    "methods": {},
    "version": 1
  }
}